{"abi":[{"type":"constructor","inputs":[{"name":"_token","type":"address","internalType":"address"},{"name":"_profileManager","type":"address","internalType":"address"},{"name":"_turnManager","type":"address","internalType":"address"},{"name":"_initialOwner","type":"address","internalType":"address"}],"stateMutability":"nonpayable"},{"type":"function","name":"claimRealTreasure","inputs":[{"name":"id","type":"uint256","internalType":"uint256"},{"name":"secret","type":"string","internalType":"string"}],"outputs":[],"stateMutability":"nonpayable"},{"type":"function","name":"createRealTreasure","inputs":[{"name":"stake","type":"uint256","internalType":"uint256"},{"name":"hash","type":"bytes32","internalType":"bytes32"},{"name":"","type":"string","internalType":"string"}],"outputs":[],"stateMutability":"nonpayable"},{"type":"function","name":"createVirtualTreasure","inputs":[{"name":"stake","type":"uint256","internalType":"uint256"},{"name":"hash","type":"bytes32","internalType":"bytes32"},{"name":"hints","type":"string[]","internalType":"string[]"},{"name":"turns","type":"uint256[]","internalType":"uint256[]"}],"outputs":[],"stateMutability":"nonpayable"},{"type":"function","name":"nextRealId","inputs":[],"outputs":[{"name":"","type":"uint256","internalType":"uint256"}],"stateMutability":"view"},{"type":"function","name":"nextVirtualId","inputs":[],"outputs":[{"name":"","type":"uint256","internalType":"uint256"}],"stateMutability":"view"},{"type":"function","name":"owner","inputs":[],"outputs":[{"name":"","type":"address","internalType":"address"}],"stateMutability":"view"},{"type":"function","name":"profileManager","inputs":[],"outputs":[{"name":"","type":"address","internalType":"contract ProfileManager"}],"stateMutability":"view"},{"type":"function","name":"realWorldTreasures","inputs":[{"name":"","type":"uint256","internalType":"uint256"}],"outputs":[{"name":"id","type":"uint256","internalType":"uint256"},{"name":"creator","type":"address","internalType":"address"},{"name":"stake","type":"uint256","internalType":"uint256"},{"name":"answerHash","type":"bytes32","internalType":"bytes32"},{"name":"createdAt","type":"uint256","internalType":"uint256"},{"name":"found","type":"bool","internalType":"bool"},{"name":"finder","type":"address","internalType":"address"}],"stateMutability":"view"},{"type":"function","name":"renounceOwnership","inputs":[],"outputs":[],"stateMutability":"nonpayable"},{"type":"function","name":"settleVirtualWin","inputs":[{"name":"id","type":"uint256","internalType":"uint256"},{"name":"winner","type":"address","internalType":"address"}],"outputs":[],"stateMutability":"nonpayable"},{"type":"function","name":"token","inputs":[],"outputs":[{"name":"","type":"address","internalType":"contract CrowdQuestToken"}],"stateMutability":"view"},{"type":"function","name":"transferOwnership","inputs":[{"name":"newOwner","type":"address","internalType":"address"}],"outputs":[],"stateMutability":"nonpayable"},{"type":"function","name":"turnManager","inputs":[],"outputs":[{"name":"","type":"address","internalType":"contract TurnManager"}],"stateMutability":"view"},{"type":"function","name":"virtualTreasures","inputs":[{"name":"","type":"uint256","internalType":"uint256"}],"outputs":[{"name":"id","type":"uint256","internalType":"uint256"},{"name":"creator","type":"address","internalType":"address"},{"name":"stake","type":"uint256","internalType":"uint256"},{"name":"answerHash","type":"bytes32","internalType":"bytes32"},{"name":"createdAt","type":"uint256","internalType":"uint256"},{"name":"found","type":"bool","internalType":"bool"},{"name":"finder","type":"address","internalType":"address"}],"stateMutability":"view"},{"type":"event","name":"OwnershipTransferred","inputs":[{"name":"previousOwner","type":"address","indexed":true,"internalType":"address"},{"name":"newOwner","type":"address","indexed":true,"internalType":"address"}],"anonymous":false},{"type":"error","name":"OwnableInvalidOwner","inputs":[{"name":"owner","type":"address","internalType":"address"}]},{"type":"error","name":"OwnableUnauthorizedAccount","inputs":[{"name":"account","type":"address","internalType":"address"}]},{"type":"error","name":"ReentrancyGuardReentrantCall","inputs":[]}],"bytecode":{"object":"0x608060405260016004556127106005553480156200001b575f80fd5b50604051620018ab380380620018ab8339810160408190526200003e916200014c565b8060017f9b779b17422d0df92223018b32b4d1fa46e071723d6817e2486d003becc55f00556001600160a01b0381166200009157604051631e4fbdf760e01b81525f600482015260240160405180910390fd5b6200009c81620000e1565b5050600180546001600160a01b039485166001600160a01b031991821617909155600280549385169382169390931790925560038054919093169116179055620001a6565b5f80546001600160a01b038381166001600160a01b0319831681178455604051919092169283917f8be0079c531659141344cd1fd0a4f28419497f9722a3daafe3b4186f6b6457e09190a35050565b80516001600160a01b038116811462000147575f80fd5b919050565b5f805f806080858703121562000160575f80fd5b6200016b8562000130565b93506200017b6020860162000130565b92506200018b6040860162000130565b91506200019b6060860162000130565b905092959194509250565b6116f780620001b45f395ff3fe608060405234801561000f575f80fd5b50600436106100e5575f3560e01c80638b51739011610088578063a8e532b411610063578063a8e532b41461027d578063f2fde38b14610290578063f3f5142e146102a3578063fc0c546a146102b6575f80fd5b80638b517390146102515780638da5cb5b1461025a578063a50d69771461026a575f80fd5b806358ba17fb116100c357806358ba17fb146101c65780635faef81a146101d9578063715018a6146101f0578063851df96c146101f8575f80fd5b8063040230ea146100e9578063473fedac146100fe57806355ed6e7b1461019b575b5f80fd5b6100fc6100f736600461121f565b6102c9565b005b61015761010c366004611263565b60066020525f908152604090208054600182015460028301546003840154600485015460059095015493946001600160a01b039384169492939192909160ff82169161010090041687565b604080519788526001600160a01b03968716602089015287019490945260608601929092526080850152151560a08401521660c082015260e0015b60405180910390f35b6003546101ae906001600160a01b031681565b6040516001600160a01b039091168152602001610192565b6100fc6101d436600461127a565b6105ed565b6101e260055481565b604051908152602001610192565b6100fc6108a1565b610157610206366004611263565b60076020525f908152604090208054600182015460028301546003840154600485015460059095015493946001600160a01b039384169492939192909160ff82169161010090041687565b6101e260045481565b5f546001600160a01b03166101ae565b6100fc610278366004611351565b6108b4565b6100fc61028b36600461144d565b610c1f565b6100fc61029e366004611477565b610f6c565b6002546101ae906001600160a01b031681565b6001546101ae906001600160a01b031681565b6102d1610fa9565b5f828152600660205260409020600581015460ff16156103205760405162461bcd60e51b8152602060048201526005602482015264119bdd5b9960da1b60448201526064015b60405180910390fd5b8060030154826040516020016103369190611497565b60405160208183030381529060405280519060200120146103885760405162461bcd60e51b815260206004820152600c60248201526b15dc9bdb99c81cd958dc995d60a21b6044820152606401610317565b600281015460048083015460405163ebc0474d60e01b81529182019290925260248101919091524260448201525f90819073__$3be0ea85d3a05a5c492eb680e8a1c70dc5$__9063ebc0474d906064016040805180830381865af41580156103f2573d5f803e3d5ffd5b505050506040513d601f19601f8201168201806040525081019061041691906114c3565b60058501805460016001600160a81b0319909116610100339081029190911782179092555460405163a9059cbb60e01b81526004810192909252602482018490529294509092506001600160a01b039091169063a9059cbb906044016020604051808303815f875af115801561048e573d5f803e3d5ffd5b505050506040513d601f19601f820116820180604052508101906104b291906114e5565b50600180549084015460405163a9059cbb60e01b81526001600160a01b0391821660048201526024810184905291169063a9059cbb906044016020604051808303815f875af1158015610507573d5f803e3d5ffd5b505050506040513d601f19601f8201168201806040525081019061052b91906114e5565b50600254600184015460048501546001600160a01b039283169263d92bdb4c92339291169086905f9061055e9042611518565b6040516001600160e01b031960e088901b1681526001600160a01b039586166004820152949093166024850152604484019190915260ff166064830152608482015260a4015f604051808303815f87803b1580156105ba575f80fd5b505af11580156105cc573d5f803e3d5ffd5b505050505050506105e960015f805160206116a283398151915255565b5050565b6105f5610fa9565b6002546040516305cfa06f60e01b81523360048201526001600160a01b03909116906305cfa06f90602401602060405180830381865afa15801561063b573d5f803e3d5ffd5b505050506040513d601f19601f8201168201806040525081019061065f91906114e5565b6106a25760405162461bcd60e51b815260206004820152601460248201527310dc99585d19481c1c9bd99a5b1948199a5c9cdd60621b6044820152606401610317565b6001546040516323b872dd60e01b8152336004820152306024820152604481018590526001600160a01b03909116906323b872dd906064016020604051808303815f875af11580156106f6573d5f803e3d5ffd5b505050506040513d601f19601f8201168201806040525081019061071a91906114e5565b6107555760405162461bcd60e51b815260206004820152600c60248201526b14dd185ad94819985a5b195960a21b6044820152606401610317565b600480545f918261076583611531565b909155506040805160e0810182528281523360208083018281528385018a8152606085018a815242608087019081525f60a0880181815260c089018281528b835260069097528982209851895594516001890180546001600160a01b0319166001600160a01b0392831617905593516002808a019190915592516003890155905160048089019190915593516005909701805495516001600160a81b0319909616971515610100600160a81b031916979097176101009584169590950294909417909555935494516314b465b560e01b81529081019290925260248201526044810188905292935016906314b465b5906064015f604051808303815f87803b15801561086f575f80fd5b505af1158015610881573d5f803e3d5ffd5b505050505061089c60015f805160206116a283398151915255565b505050565b6108a9610fc4565b6108b25f610ff0565b565b6108bc610fa9565b6002546040516305cfa06f60e01b81523360048201526001600160a01b03909116906305cfa06f90602401602060405180830381865afa158015610902573d5f803e3d5ffd5b505050506040513d601f19601f8201168201806040525081019061092691906114e5565b6109695760405162461bcd60e51b815260206004820152601460248201527310dc99585d19481c1c9bd99a5b1948199a5c9cdd60621b6044820152606401610317565b6001546040516323b872dd60e01b8152336004820152306024820152604481018690526001600160a01b03909116906323b872dd906064016020604051808303815f875af11580156109bd573d5f803e3d5ffd5b505050506040513d601f19601f820116820180604052508101906109e191906114e5565b610a1c5760405162461bcd60e51b815260206004820152600c60248201526b14dd185ad94819985a5b195960a21b6044820152606401610317565b600580545f9182610a2c83611531565b9091555060408051610120810182528281523360208083019182528284018a8152606084018a815242608086019081525f60a0870181815260c0880182815260e089018e8152610100808b018f90528c8552600789529a9093208951815597516001890180546001600160a01b0319166001600160a01b03928316179055955160028901559351600388015591516004870155905160058601805493516001600160a81b0319909416911515610100600160a81b03191691909117929093169096021790559251805194955091939092610b0d92600685019291019061106e565b506101008201518051610b2a9160078401916020909101906110c2565b5050600354604051635c916bd560e11b81526004810184905261012c6024820152600a6044820152600160648201526001600160a01b03909116915063b922d7aa906084015f604051808303815f87803b158015610b86575f80fd5b505af1158015610b98573d5f803e3d5ffd5b50506002546040516314b465b560e01b815233600482015260016024820152604481018990526001600160a01b0390911692506314b465b591506064015f604051808303815f87803b158015610bec575f80fd5b505af1158015610bfe573d5f803e3d5ffd5b5050505050610c1960015f805160206116a283398151915255565b50505050565b610c27610fa9565b5f828152600760205260409020600581015460ff1615610c715760405162461bcd60e51b8152602060048201526005602482015264119bdd5b9960da1b6044820152606401610317565b60035460405163ef0c116d60e01b8152600481018590525f916001600160a01b03169063ef0c116d90602401602060405180830381865afa158015610cb8573d5f803e3d5ffd5b505050506040513d601f19601f82011682018060405250810190610cdc9190611549565b90505f8073__$3be0ea85d3a05a5c492eb680e8a1c70dc5$__63f43e4d608560020154856040518363ffffffff1660e01b8152600401610d26929190918252602082015260400190565b6040805180830381865af4158015610d40573d5f803e3d5ffd5b505050506040513d601f19601f82011682018060405250810190610d6491906114c3565b60058601805460016001600160a81b03199091166101006001600160a01b038b8116918202929092178317909355905460405163a9059cbb60e01b815260048101939093526024830185905293955091935091169063a9059cbb906044016020604051808303815f875af1158015610dde573d5f803e3d5ffd5b505050506040513d601f19601f82011682018060405250810190610e0291906114e5565b50600180549085015460405163a9059cbb60e01b81526001600160a01b0391821660048201526024810184905291169063a9059cbb906044016020604051808303815f875af1158015610e57573d5f803e3d5ffd5b505050506040513d601f19601f82011682018060405250810190610e7b91906114e5565b5060025460018581015460405163364af6d360e21b81526001600160a01b03898116600483015291821660248201526044810186905260648101929092525f60848301529091169063d92bdb4c9060a4015f604051808303815f87803b158015610ee3575f80fd5b505af1158015610ef5573d5f803e3d5ffd5b5050600354604051630490fa2d60e11b8152600481018a90526001600160a01b039091169250630921f45a91506024015f604051808303815f87803b158015610f3c575f80fd5b505af1158015610f4e573d5f803e3d5ffd5b50505050505050506105e960015f805160206116a283398151915255565b610f74610fc4565b6001600160a01b038116610f9d57604051631e4fbdf760e01b81525f6004820152602401610317565b610fa681610ff0565b50565b610fb161103f565b60025f805160206116a283398151915255565b5f546001600160a01b031633146108b25760405163118cdaa760e01b8152336004820152602401610317565b5f80546001600160a01b038381166001600160a01b0319831681178455604051919092169283917f8be0079c531659141344cd1fd0a4f28419497f9722a3daafe3b4186f6b6457e09190a35050565b5f805160206116a2833981519152546002036108b257604051633ee5aeb560e01b815260040160405180910390fd5b828054828255905f5260205f209081019282156110b2579160200282015b828111156110b257825182906110a290826115e5565b509160200191906001019061108c565b506110be929150611107565b5090565b828054828255905f5260205f209081019282156110fb579160200282015b828111156110fb5782518255916020019190600101906110e0565b506110be929150611123565b808211156110be575f61111a8282611137565b50600101611107565b5b808211156110be575f8155600101611124565b50805461114390611560565b5f825580601f10611152575050565b601f0160209004905f5260205f2090810190610fa69190611123565b634e487b7160e01b5f52604160045260245ffd5b604051601f8201601f1916810167ffffffffffffffff811182821017156111ab576111ab61116e565b604052919050565b5f82601f8301126111c2575f80fd5b813567ffffffffffffffff8111156111dc576111dc61116e565b6111ef601f8201601f1916602001611182565b818152846020838601011115611203575f80fd5b816020850160208301375f918101602001919091529392505050565b5f8060408385031215611230575f80fd5b82359150602083013567ffffffffffffffff81111561124d575f80fd5b611259858286016111b3565b9150509250929050565b5f60208284031215611273575f80fd5b5035919050565b5f805f6060848603121561128c575f80fd5b8335925060208401359150604084013567ffffffffffffffff8111156112b0575f80fd5b6112bc868287016111b3565b9150509250925092565b5f67ffffffffffffffff8211156112df576112df61116e565b5060051b60200190565b5f82601f8301126112f8575f80fd5b8135602061130d611308836112c6565b611182565b82815260059290921b8401810191818101908684111561132b575f80fd5b8286015b84811015611346578035835291830191830161132f565b509695505050505050565b5f805f8060808587031215611364575f80fd5b843593506020808601359350604086013567ffffffffffffffff8082111561138a575f80fd5b818801915088601f83011261139d575f80fd5b81356113ab611308826112c6565b81815260059190911b8301840190848101908b8311156113c9575f80fd5b8585015b83811015611400578035858111156113e4575f8081fd5b6113f28e89838a01016111b3565b8452509186019186016113cd565b50965050506060880135925080831115611418575f80fd5b5050611426878288016112e9565b91505092959194509250565b80356001600160a01b0381168114611448575f80fd5b919050565b5f806040838503121561145e575f80fd5b8235915061146e60208401611432565b90509250929050565b5f60208284031215611487575f80fd5b61149082611432565b9392505050565b5f82515f5b818110156114b6576020818601810151858301520161149c565b505f920191825250919050565b5f80604083850312156114d4575f80fd5b505080516020909101519092909150565b5f602082840312156114f5575f80fd5b81518015158114611490575f80fd5b634e487b7160e01b5f52601160045260245ffd5b8181038181111561152b5761152b611504565b92915050565b5f6001820161154257611542611504565b5060010190565b5f60208284031215611559575f80fd5b5051919050565b600181811c9082168061157457607f821691505b60208210810361159257634e487b7160e01b5f52602260045260245ffd5b50919050565b601f82111561089c575f81815260208120601f850160051c810160208610156115be5750805b601f850160051c820191505b818110156115dd578281556001016115ca565b505050505050565b815167ffffffffffffffff8111156115ff576115ff61116e565b6116138161160d8454611560565b84611598565b602080601f831160018114611646575f841561162f5750858301515b5f19600386901b1c1916600185901b1785556115dd565b5f85815260208120601f198616915b8281101561167457888601518255948401946001909101908401611655565b508582101561169157878501515f19600388901b60f8161c191681555b5050505050600190811b0190555056fe9b779b17422d0df92223018b32b4d1fa46e071723d6817e2486d003becc55f00a2646970667358221220e56acdf505febc7ae699060baa4f7bf0e522e113939a03cec42f580891b7422864736f6c63430008140033","linkReferences":{"src/libraries/RewardCalculator.sol":{"RewardCalculator":[{"start":1391,"length":20},{"start":3734,"length":20}]}}},"methodIdentifiers":{"claimRealTreasure(uint256,string)":"040230ea","createRealTreasure(uint256,bytes32,string)":"58ba17fb","createVirtualTreasure(uint256,bytes32,string[],uint256[])":"a50d6977","nextRealId()":"8b517390","nextVirtualId()":"5faef81a","owner()":"8da5cb5b","profileManager()":"f3f5142e","realWorldTreasures(uint256)":"473fedac","renounceOwnership()":"715018a6","settleVirtualWin(uint256,address)":"a8e532b4","token()":"fc0c546a","transferOwnership(address)":"f2fde38b","turnManager()":"55ed6e7b","virtualTreasures(uint256)":"851df96c"},"id":27}