{"abi":[{"type":"constructor","inputs":[{"name":"initialOwner","type":"address","internalType":"address"},{"name":"_treasury","type":"address","internalType":"address"}],"stateMutability":"nonpayable"},{"type":"function","name":"INITIAL_SUPPLY","inputs":[],"outputs":[{"name":"","type":"uint256","internalType":"uint256"}],"stateMutability":"view"},{"type":"function","name":"allowance","inputs":[{"name":"owner","type":"address","internalType":"address"},{"name":"spender","type":"address","internalType":"address"}],"outputs":[{"name":"","type":"uint256","internalType":"uint256"}],"stateMutability":"view"},{"type":"function","name":"approve","inputs":[{"name":"spender","type":"address","internalType":"address"},{"name":"value","type":"uint256","internalType":"uint256"}],"outputs":[{"name":"","type":"bool","internalType":"bool"}],"stateMutability":"nonpayable"},{"type":"function","name":"balanceOf","inputs":[{"name":"account","type":"address","internalType":"address"}],"outputs":[{"name":"","type":"uint256","internalType":"uint256"}],"stateMutability":"view"},{"type":"function","name":"burn","inputs":[{"name":"amount","type":"uint256","internalType":"uint256"}],"outputs":[],"stateMutability":"nonpayable"},{"type":"function","name":"decimals","inputs":[],"outputs":[{"name":"","type":"uint8","internalType":"uint8"}],"stateMutability":"view"},{"type":"function","name":"mint","inputs":[{"name":"to","type":"address","internalType":"address"},{"name":"amount","type":"uint256","internalType":"uint256"}],"outputs":[],"stateMutability":"nonpayable"},{"type":"function","name":"name","inputs":[],"outputs":[{"name":"","type":"string","internalType":"string"}],"stateMutability":"view"},{"type":"function","name":"owner","inputs":[],"outputs":[{"name":"","type":"address","internalType":"address"}],"stateMutability":"view"},{"type":"function","name":"renounceOwnership","inputs":[],"outputs":[],"stateMutability":"nonpayable"},{"type":"function","name":"setTreasury","inputs":[{"name":"_treasury","type":"address","internalType":"address"}],"outputs":[],"stateMutability":"nonpayable"},{"type":"function","name":"symbol","inputs":[],"outputs":[{"name":"","type":"string","internalType":"string"}],"stateMutability":"view"},{"type":"function","name":"totalSupply","inputs":[],"outputs":[{"name":"","type":"uint256","internalType":"uint256"}],"stateMutability":"view"},{"type":"function","name":"transfer","inputs":[{"name":"to","type":"address","internalType":"address"},{"name":"value","type":"uint256","internalType":"uint256"}],"outputs":[{"name":"","type":"bool","internalType":"bool"}],"stateMutability":"nonpayable"},{"type":"function","name":"transferFrom","inputs":[{"name":"from","type":"address","internalType":"address"},{"name":"to","type":"address","internalType":"address"},{"name":"value","type":"uint256","internalType":"uint256"}],"outputs":[{"name":"","type":"bool","internalType":"bool"}],"stateMutability":"nonpayable"},{"type":"function","name":"transferOwnership","inputs":[{"name":"newOwner","type":"address","internalType":"address"}],"outputs":[],"stateMutability":"nonpayable"},{"type":"function","name":"treasury","inputs":[],"outputs":[{"name":"","type":"address","internalType":"address"}],"stateMutability":"view"},{"type":"event","name":"Approval","inputs":[{"name":"owner","type":"address","indexed":true,"internalType":"address"},{"name":"spender","type":"address","indexed":true,"internalType":"address"},{"name":"value","type":"uint256","indexed":false,"internalType":"uint256"}],"anonymous":false},{"type":"event","name":"OwnershipTransferred","inputs":[{"name":"previousOwner","type":"address","indexed":true,"internalType":"address"},{"name":"newOwner","type":"address","indexed":true,"internalType":"address"}],"anonymous":false},{"type":"event","name":"TokensBurned","inputs":[{"name":"from","type":"address","indexed":true,"internalType":"address"},{"name":"amount","type":"uint256","indexed":false,"internalType":"uint256"}],"anonymous":false},{"type":"event","name":"Transfer","inputs":[{"name":"from","type":"address","indexed":true,"internalType":"address"},{"name":"to","type":"address","indexed":true,"internalType":"address"},{"name":"value","type":"uint256","indexed":false,"internalType":"uint256"}],"anonymous":false},{"type":"event","name":"TreasuryUpdated","inputs":[{"name":"newTreasury","type":"address","indexed":true,"internalType":"address"}],"anonymous":false},{"type":"error","name":"ERC20InsufficientAllowance","inputs":[{"name":"spender","type":"address","internalType":"address"},{"name":"allowance","type":"uint256","internalType":"uint256"},{"name":"needed","type":"uint256","internalType":"uint256"}]},{"type":"error","name":"ERC20InsufficientBalance","inputs":[{"name":"sender","type":"address","internalType":"address"},{"name":"balance","type":"uint256","internalType":"uint256"},{"name":"needed","type":"uint256","internalType":"uint256"}]},{"type":"error","name":"ERC20InvalidApprover","inputs":[{"name":"approver","type":"address","internalType":"address"}]},{"type":"error","name":"ERC20InvalidReceiver","inputs":[{"name":"receiver","type":"address","internalType":"address"}]},{"type":"error","name":"ERC20InvalidSender","inputs":[{"name":"sender","type":"address","internalType":"address"}]},{"type":"error","name":"ERC20InvalidSpender","inputs":[{"name":"spender","type":"address","internalType":"address"}]},{"type":"error","name":"OwnableInvalidOwner","inputs":[{"name":"owner","type":"address","internalType":"address"}]},{"type":"error","name":"OwnableUnauthorizedAccount","inputs":[{"name":"account","type":"address","internalType":"address"}]}],"bytecode":{"object":"0x608060405234801562000010575f80fd5b5060405162000f1338038062000f138339810160408190526200003391620002e3565b816040518060400160405280600a81526020016910dc9bddd9145d595cdd60b21b8152506040518060400160405280600481526020016310d454d560e21b8152508160039081620000859190620003b9565b506004620000948282620003b9565b5050506001600160a01b038116620000c657604051631e4fbdf760e01b81525f60048201526024015b60405180910390fd5b620000d1816200010b565b50600680546001600160a01b0319166001600160a01b038316179055620001038269d3c21bcecceda10000006200015c565b5050620004a7565b600580546001600160a01b038381166001600160a01b0319831681179093556040519116919082907f8be0079c531659141344cd1fd0a4f28419497f9722a3daafe3b4186f6b6457e0905f90a35050565b6001600160a01b038216620001875760405163ec442f0560e01b81525f6004820152602401620000bd565b620001945f838362000198565b5050565b6001600160a01b038316620001c6578060025f828254620001ba919062000481565b90915550620002389050565b6001600160a01b0383165f90815260208190526040902054818110156200021a5760405163391434e360e21b81526001600160a01b03851660048201526024810182905260448101839052606401620000bd565b6001600160a01b0384165f9081526020819052604090209082900390555b6001600160a01b038216620002565760028054829003905562000274565b6001600160a01b0382165f9081526020819052604090208054820190555b816001600160a01b0316836001600160a01b03167fddf252ad1be2c89b69c2b068fc378daa952ba7f163c4a11628f55a4df523b3ef83604051620002ba91815260200190565b60405180910390a3505050565b80516001600160a01b0381168114620002de575f80fd5b919050565b5f8060408385031215620002f5575f80fd5b6200030083620002c7565b91506200031060208401620002c7565b90509250929050565b634e487b7160e01b5f52604160045260245ffd5b600181811c908216806200034257607f821691505b6020821081036200036157634e487b7160e01b5f52602260045260245ffd5b50919050565b601f821115620003b4575f81815260208120601f850160051c810160208610156200038f5750805b601f850160051c820191505b81811015620003b0578281556001016200039b565b5050505b505050565b81516001600160401b03811115620003d557620003d562000319565b620003ed81620003e684546200032d565b8462000367565b602080601f83116001811462000423575f84156200040b5750858301515b5f19600386901b1c1916600185901b178555620003b0565b5f85815260208120601f198616915b82811015620004535788860151825594840194600190910190840162000432565b50858210156200047157878501515f19600388901b60f8161c191681555b5050505050600190811b01905550565b80820180821115620004a157634e487b7160e01b5f52601160045260245ffd5b92915050565b610a5e80620004b55f395ff3fe608060405234801561000f575f80fd5b5060043610610106575f3560e01c806361d027b31161009e57806395d89b411161006e57806395d89b4114610224578063a9059cbb1461022c578063dd62ed3e1461023f578063f0f4426014610277578063f2fde38b1461028a575f80fd5b806361d027b3146101b857806370a08231146101e3578063715018a61461020b5780638da5cb5b14610213575f80fd5b80632ff2e9dc116100d95780632ff2e9dc14610170578063313ce5671461018157806340c10f191461019057806342966c68146101a5575f80fd5b806306fdde031461010a578063095ea7b31461012857806318160ddd1461014b57806323b872dd1461015d575b5f80fd5b61011261029d565b60405161011f91906108a2565b60405180910390f35b61013b610136366004610908565b61032d565b604051901515815260200161011f565b6002545b60405190815260200161011f565b61013b61016b366004610930565b610346565b61014f69d3c21bcecceda100000081565b6040516012815260200161011f565b6101a361019e366004610908565b610369565b005b6101a36101b3366004610969565b61037f565b6006546101cb906001600160a01b031681565b6040516001600160a01b03909116815260200161011f565b61014f6101f1366004610980565b6001600160a01b03165f9081526020819052604090205490565b6101a36103c1565b6005546001600160a01b03166101cb565b6101126103d4565b61013b61023a366004610908565b6103e3565b61014f61024d3660046109a0565b6001600160a01b039182165f90815260016020908152604080832093909416825291909152205490565b6101a3610285366004610980565b6103f0565b6101a3610298366004610980565b61049c565b6060600380546102ac906109d1565b80601f01602080910402602001604051908101604052809291908181526020018280546102d8906109d1565b80156103235780601f106102fa57610100808354040283529160200191610323565b820191905f5260205f20905b81548152906001019060200180831161030657829003601f168201915b5050505050905090565b5f3361033a8185856104d9565b60019150505b92915050565b5f336103538582856104eb565b61035e858585610567565b506001949350505050565b6103716105c4565b61037b82826105f1565b5050565b6103893382610625565b60405181815233907ffd38818f5291bf0bb3a2a48aadc06ba8757865d1dabd804585338aab3009dcb69060200160405180910390a250565b6103c96105c4565b6103d25f610659565b565b6060600480546102ac906109d1565b5f3361033a818585610567565b6103f86105c4565b6001600160a01b0381166104535760405162461bcd60e51b815260206004820152601860248201527f496e76616c69642074726561737572792061646472657373000000000000000060448201526064015b60405180910390fd5b600680546001600160a01b0319166001600160a01b0383169081179091556040517f7dae230f18360d76a040c81f050aa14eb9d6dc7901b20fc5d855e2a20fe814d1905f90a250565b6104a46105c4565b6001600160a01b0381166104cd57604051631e4fbdf760e01b81525f600482015260240161044a565b6104d681610659565b50565b6104e683838360016106aa565b505050565b6001600160a01b038381165f908152600160209081526040808320938616835292905220545f19811015610561578181101561055357604051637dc7a0d960e11b81526001600160a01b0384166004820152602481018290526044810183905260640161044a565b61056184848484035f6106aa565b50505050565b6001600160a01b03831661059057604051634b637e8f60e11b81525f600482015260240161044a565b6001600160a01b0382166105b95760405163ec442f0560e01b81525f600482015260240161044a565b6104e683838361077c565b6005546001600160a01b031633146103d25760405163118cdaa760e01b815233600482015260240161044a565b6001600160a01b03821661061a5760405163ec442f0560e01b81525f600482015260240161044a565b61037b5f838361077c565b6001600160a01b03821661064e57604051634b637e8f60e11b81525f600482015260240161044a565b61037b825f8361077c565b600580546001600160a01b038381166001600160a01b0319831681179093556040519116919082907f8be0079c531659141344cd1fd0a4f28419497f9722a3daafe3b4186f6b6457e0905f90a35050565b6001600160a01b0384166106d35760405163e602df0560e01b81525f600482015260240161044a565b6001600160a01b0383166106fc57604051634a1406b160e11b81525f600482015260240161044a565b6001600160a01b038085165f908152600160209081526040808320938716835292905220829055801561056157826001600160a01b0316846001600160a01b03167f8c5be1e5ebec7d5bd14f71427d1e84f3dd0314c0f7b2291e5b200ac8c7c3b9258460405161076e91815260200190565b60405180910390a350505050565b6001600160a01b0383166107a6578060025f82825461079b9190610a09565b909155506108169050565b6001600160a01b0383165f90815260208190526040902054818110156107f85760405163391434e360e21b81526001600160a01b0385166004820152602481018290526044810183905260640161044a565b6001600160a01b0384165f9081526020819052604090209082900390555b6001600160a01b03821661083257600280548290039055610850565b6001600160a01b0382165f9081526020819052604090208054820190555b816001600160a01b0316836001600160a01b03167fddf252ad1be2c89b69c2b068fc378daa952ba7f163c4a11628f55a4df523b3ef8360405161089591815260200190565b60405180910390a3505050565b5f6020808352835180828501525f5b818110156108cd578581018301518582016040015282016108b1565b505f604082860101526040601f19601f8301168501019250505092915050565b80356001600160a01b0381168114610903575f80fd5b919050565b5f8060408385031215610919575f80fd5b610922836108ed565b946020939093013593505050565b5f805f60608486031215610942575f80fd5b61094b846108ed565b9250610959602085016108ed565b9150604084013590509250925092565b5f60208284031215610979575f80fd5b5035919050565b5f60208284031215610990575f80fd5b610999826108ed565b9392505050565b5f80604083850312156109b1575f80fd5b6109ba836108ed565b91506109c8602084016108ed565b90509250929050565b600181811c908216806109e557607f821691505b602082108103610a0357634e487b7160e01b5f52602260045260245ffd5b50919050565b8082018082111561034057634e487b7160e01b5f52601160045260245ffdfea26469706673582212205098f68096097928c5b6eb2f3a6f9c8ceef0845181491434a09fc9ea7b00078564736f6c63430008140033","linkReferences":{}},"methodIdentifiers":{"INITIAL_SUPPLY()":"2ff2e9dc","allowance(address,address)":"dd62ed3e","approve(address,uint256)":"095ea7b3","balanceOf(address)":"70a08231","burn(uint256)":"42966c68","decimals()":"313ce567","mint(address,uint256)":"40c10f19","name()":"06fdde03","owner()":"8da5cb5b","renounceOwnership()":"715018a6","setTreasury(address)":"f0f44260","symbol()":"95d89b41","totalSupply()":"18160ddd","transfer(address,uint256)":"a9059cbb","transferFrom(address,address,uint256)":"23b872dd","transferOwnership(address)":"f2fde38b","treasury()":"61d027b3"},"id":28}