{"abi":[{"type":"function","name":"createProfile","inputs":[{"name":"username","type":"string","internalType":"string"}],"outputs":[],"stateMutability":"nonpayable"},{"type":"function","name":"getAchievements","inputs":[{"name":"player","type":"address","internalType":"address"}],"outputs":[{"name":"","type":"uint256[]","internalType":"uint256[]"}],"stateMutability":"view"},{"type":"function","name":"getAddressByUsername","inputs":[{"name":"username","type":"string","internalType":"string"}],"outputs":[{"name":"","type":"address","internalType":"address"}],"stateMutability":"view"},{"type":"function","name":"getAllPlayers","inputs":[],"outputs":[{"name":"","type":"address[]","internalType":"address[]"}],"stateMutability":"view"},{"type":"function","name":"getGlobalStats","inputs":[{"name":"player","type":"address","internalType":"address"}],"outputs":[{"name":"","type":"tuple","internalType":"struct ProfileTypes.GlobalStats","components":[{"name":"totalTreasuresCreated","type":"uint256","internalType":"uint256"},{"name":"totalTreasuresFound","type":"uint256","internalType":"uint256"},{"name":"totalStaked","type":"uint256","internalType":"uint256"},{"name":"totalEarned","type":"uint256","internalType":"uint256"},{"name":"netEarnings","type":"uint256","internalType":"uint256"},{"name":"totalTurnsPlayed","type":"uint256","internalType":"uint256"},{"name":"totalGuessesMade","type":"uint256","internalType":"uint256"},{"name":"correctGuesses","type":"uint256","internalType":"uint256"},{"name":"lastActiveTimestamp","type":"uint256","internalType":"uint256"}]}],"stateMutability":"view"},{"type":"function","name":"getLeaderboardByEarnings","inputs":[{"name":"limit","type":"uint256","internalType":"uint256"}],"outputs":[{"name":"","type":"address[]","internalType":"address[]"},{"name":"","type":"uint256[]","internalType":"uint256[]"}],"stateMutability":"view"},{"type":"function","name":"getLeaderboardByTreasuresFound","inputs":[{"name":"limit","type":"uint256","internalType":"uint256"}],"outputs":[{"name":"","type":"address[]","internalType":"address[]"},{"name":"","type":"uint256[]","internalType":"uint256[]"}],"stateMutability":"view"},{"type":"function","name":"getPlayerCount","inputs":[],"outputs":[{"name":"","type":"uint256","internalType":"uint256"}],"stateMutability":"view"},{"type":"function","name":"getProfile","inputs":[{"name":"player","type":"address","internalType":"address"}],"outputs":[{"name":"","type":"tuple","internalType":"struct ProfileTypes.PlayerProfileData","components":[{"name":"wallet","type":"address","internalType":"address"},{"name":"username","type":"string","internalType":"string"},{"name":"exists","type":"bool","internalType":"bool"},{"name":"createdAt","type":"uint256","internalType":"uint256"},{"name":"globalStats","type":"tuple","internalType":"struct ProfileTypes.GlobalStats","components":[{"name":"totalTreasuresCreated","type":"uint256","internalType":"uint256"},{"name":"totalTreasuresFound","type":"uint256","internalType":"uint256"},{"name":"totalStaked","type":"uint256","internalType":"uint256"},{"name":"totalEarned","type":"uint256","internalType":"uint256"},{"name":"netEarnings","type":"uint256","internalType":"uint256"},{"name":"totalTurnsPlayed","type":"uint256","internalType":"uint256"},{"name":"totalGuessesMade","type":"uint256","internalType":"uint256"},{"name":"correctGuesses","type":"uint256","internalType":"uint256"},{"name":"lastActiveTimestamp","type":"uint256","internalType":"uint256"}]},{"name":"realWorldStats","type":"tuple","internalType":"struct ProfileTypes.RealWorldStats","components":[{"name":"treasuresCreated","type":"uint256","internalType":"uint256"},{"name":"treasuresFound","type":"uint256","internalType":"uint256"},{"name":"fastestFindSeconds","type":"uint256","internalType":"uint256"},{"name":"totalDistanceTraveled","type":"uint256","internalType":"uint256"},{"name":"qrScansCompleted","type":"uint256","internalType":"uint256"}]},{"name":"virtualStats","type":"tuple","internalType":"struct ProfileTypes.VirtualStats","components":[{"name":"treasuresCreated","type":"uint256","internalType":"uint256"},{"name":"treasuresFound","type":"uint256","internalType":"uint256"},{"name":"turnsPlayed","type":"uint256","internalType":"uint256"},{"name":"guessesMade","type":"uint256","internalType":"uint256"},{"name":"correctGuesses","type":"uint256","internalType":"uint256"},{"name":"accuracyBasisPoints","type":"uint256","internalType":"uint256"},{"name":"longestTurnStreak","type":"uint256","internalType":"uint256"},{"name":"currentTurnStreak","type":"uint256","internalType":"uint256"}]},{"name":"earnedAchievements","type":"uint256[]","internalType":"uint256[]"}]}],"stateMutability":"view"},{"type":"function","name":"getRealWorldStats","inputs":[{"name":"player","type":"address","internalType":"address"}],"outputs":[{"name":"","type":"tuple","internalType":"struct ProfileTypes.RealWorldStats","components":[{"name":"treasuresCreated","type":"uint256","internalType":"uint256"},{"name":"treasuresFound","type":"uint256","internalType":"uint256"},{"name":"fastestFindSeconds","type":"uint256","internalType":"uint256"},{"name":"totalDistanceTraveled","type":"uint256","internalType":"uint256"},{"name":"qrScansCompleted","type":"uint256","internalType":"uint256"}]}],"stateMutability":"view"},{"type":"function","name":"getUsername","inputs":[{"name":"player","type":"address","internalType":"address"}],"outputs":[{"name":"","type":"string","internalType":"string"}],"stateMutability":"view"},{"type":"function","name":"getVirtualStats","inputs":[{"name":"player","type":"address","internalType":"address"}],"outputs":[{"name":"","type":"tuple","internalType":"struct ProfileTypes.VirtualStats","components":[{"name":"treasuresCreated","type":"uint256","internalType":"uint256"},{"name":"treasuresFound","type":"uint256","internalType":"uint256"},{"name":"turnsPlayed","type":"uint256","internalType":"uint256"},{"name":"guessesMade","type":"uint256","internalType":"uint256"},{"name":"correctGuesses","type":"uint256","internalType":"uint256"},{"name":"accuracyBasisPoints","type":"uint256","internalType":"uint256"},{"name":"longestTurnStreak","type":"uint256","internalType":"uint256"},{"name":"currentTurnStreak","type":"uint256","internalType":"uint256"}]}],"stateMutability":"view"},{"type":"function","name":"profileExists","inputs":[{"name":"player","type":"address","internalType":"address"}],"outputs":[{"name":"","type":"bool","internalType":"bool"}],"stateMutability":"view"},{"type":"function","name":"updateOnGuessSubmitted","inputs":[{"name":"player","type":"address","internalType":"address"},{"name":"isCorrect","type":"bool","internalType":"bool"}],"outputs":[],"stateMutability":"nonpayable"},{"type":"function","name":"updateOnReward","inputs":[{"name":"player","type":"address","internalType":"address"},{"name":"amount","type":"uint256","internalType":"uint256"}],"outputs":[],"stateMutability":"nonpayable"},{"type":"function","name":"updateOnStake","inputs":[{"name":"player","type":"address","internalType":"address"},{"name":"amount","type":"uint256","internalType":"uint256"},{"name":"isAdding","type":"bool","internalType":"bool"}],"outputs":[],"stateMutability":"nonpayable"},{"type":"function","name":"updateOnTreasureCreated","inputs":[{"name":"player","type":"address","internalType":"address"},{"name":"mode","type":"uint8","internalType":"uint8"},{"name":"stakeAmount","type":"uint256","internalType":"uint256"}],"outputs":[],"stateMutability":"nonpayable"},{"type":"function","name":"updateOnTreasureFound","inputs":[{"name":"player","type":"address","internalType":"address"},{"name":"creator","type":"address","internalType":"address"},{"name":"reward","type":"uint256","internalType":"uint256"},{"name":"mode","type":"uint8","internalType":"uint8"},{"name":"timeToFind","type":"uint256","internalType":"uint256"}],"outputs":[],"stateMutability":"nonpayable"},{"type":"function","name":"updateOnTurnPlayed","inputs":[{"name":"player","type":"address","internalType":"address"},{"name":"","type":"uint256","internalType":"uint256"},{"name":"wasCorrect","type":"bool","internalType":"bool"}],"outputs":[],"stateMutability":"nonpayable"},{"type":"function","name":"updateUsername","inputs":[{"name":"newUsername","type":"string","internalType":"string"}],"outputs":[],"stateMutability":"nonpayable"},{"type":"event","name":"AchievementEarned","inputs":[{"name":"player","type":"address","indexed":true,"internalType":"address"},{"name":"achievementId","type":"uint256","indexed":false,"internalType":"uint256"},{"name":"achievementName","type":"string","indexed":false,"internalType":"string"},{"name":"timestamp","type":"uint256","indexed":false,"internalType":"uint256"}],"anonymous":false},{"type":"event","name":"ExpiredTreasureRemoved","inputs":[{"name":"treasureId","type":"uint256","indexed":true,"internalType":"uint256"},{"name":"timestamp","type":"uint256","indexed":false,"internalType":"uint256"}],"anonymous":false},{"type":"event","name":"GamePaused","inputs":[{"name":"pauser","type":"address","indexed":true,"internalType":"address"}],"anonymous":false},{"type":"event","name":"GameUnpaused","inputs":[{"name":"unpauser","type":"address","indexed":true,"internalType":"address"}],"anonymous":false},{"type":"event","name":"GuessSubmitted","inputs":[{"name":"treasureId","type":"uint256","indexed":true,"internalType":"uint256"},{"name":"turnNumber","type":"uint256","indexed":true,"internalType":"uint256"},{"name":"player","type":"address","indexed":true,"internalType":"address"},{"name":"guessHash","type":"bytes32","indexed":false,"internalType":"bytes32"},{"name":"timestamp","type":"uint256","indexed":false,"internalType":"uint256"}],"anonymous":false},{"type":"event","name":"HintReleased","inputs":[{"name":"treasureId","type":"uint256","indexed":true,"internalType":"uint256"},{"name":"hintIndex","type":"uint256","indexed":false,"internalType":"uint256"},{"name":"hintContent","type":"string","indexed":false,"internalType":"string"},{"name":"releaseTime","type":"uint256","indexed":false,"internalType":"uint256"}],"anonymous":false},{"type":"event","name":"ProfileCreated","inputs":[{"name":"player","type":"address","indexed":true,"internalType":"address"},{"name":"username","type":"string","indexed":false,"internalType":"string"},{"name":"timestamp","type":"uint256","indexed":false,"internalType":"uint256"}],"anonymous":false},{"type":"event","name":"ProfileUpdated","inputs":[{"name":"player","type":"address","indexed":true,"internalType":"address"},{"name":"newUsername","type":"string","indexed":false,"internalType":"string"},{"name":"timestamp","type":"uint256","indexed":false,"internalType":"uint256"}],"anonymous":false},{"type":"event","name":"RewardDistributed","inputs":[{"name":"treasureId","type":"uint256","indexed":true,"internalType":"uint256"},{"name":"recipient","type":"address","indexed":true,"internalType":"address"},{"name":"amount","type":"uint256","indexed":false,"internalType":"uint256"},{"name":"rewardType","type":"uint8","indexed":false,"internalType":"uint8"},{"name":"multiplier","type":"uint256","indexed":false,"internalType":"uint256"}],"anonymous":false},{"type":"event","name":"StakingRewardDistributed","inputs":[{"name":"player","type":"address","indexed":true,"internalType":"address"},{"name":"amount","type":"uint256","indexed":false,"internalType":"uint256"},{"name":"timeStaked","type":"uint256","indexed":false,"internalType":"uint256"}],"anonymous":false},{"type":"event","name":"TreasureCreated","inputs":[{"name":"treasureId","type":"uint256","indexed":true,"internalType":"uint256"},{"name":"creator","type":"address","indexed":true,"internalType":"address"},{"name":"mode","type":"uint8","indexed":false,"internalType":"uint8"},{"name":"stakeAmount","type":"uint256","indexed":false,"internalType":"uint256"},{"name":"timestamp","type":"uint256","indexed":false,"internalType":"uint256"}],"anonymous":false},{"type":"event","name":"TreasureFound","inputs":[{"name":"treasureId","type":"uint256","indexed":true,"internalType":"uint256"},{"name":"finder","type":"address","indexed":true,"internalType":"address"},{"name":"creator","type":"address","indexed":true,"internalType":"address"},{"name":"rewardAmount","type":"uint256","indexed":false,"internalType":"uint256"},{"name":"timestamp","type":"uint256","indexed":false,"internalType":"uint256"}],"anonymous":false},{"type":"event","name":"TreasureRemoved","inputs":[{"name":"treasureId","type":"uint256","indexed":true,"internalType":"uint256"},{"name":"creator","type":"address","indexed":true,"internalType":"address"},{"name":"stakeReturned","type":"uint256","indexed":false,"internalType":"uint256"},{"name":"reason","type":"string","indexed":false,"internalType":"string"}],"anonymous":false},{"type":"event","name":"TurnCompleted","inputs":[{"name":"treasureId","type":"uint256","indexed":true,"internalType":"uint256"},{"name":"turnNumber","type":"uint256","indexed":true,"internalType":"uint256"},{"name":"winner","type":"address","indexed":false,"internalType":"address"},{"name":"correctGuessFound","type":"bool","indexed":false,"internalType":"bool"}],"anonymous":false},{"type":"event","name":"TurnInitialized","inputs":[{"name":"treasureId","type":"uint256","indexed":true,"internalType":"uint256"},{"name":"turnNumber","type":"uint256","indexed":false,"internalType":"uint256"},{"name":"players","type":"address[]","indexed":false,"internalType":"address[]"},{"name":"startTime","type":"uint256","indexed":false,"internalType":"uint256"},{"name":"endTime","type":"uint256","indexed":false,"internalType":"uint256"}],"anonymous":false},{"type":"error","name":"Profile__AlreadyExists","inputs":[]},{"type":"error","name":"Profile__InvalidUsername","inputs":[]},{"type":"error","name":"Profile__NotFound","inputs":[]},{"type":"error","name":"Profile__UsernameTaken","inputs":[]}],"bytecode":{"object":"0x608060405234801561000f575f80fd5b50612b618061001d5f395ff3fe608060405234801561000f575f80fd5b5060043610610127575f3560e01c80638ef578f6116100a9578063c96cea701161006e578063c96cea70146102d2578063ce43c032146102e5578063d92bdb4c14610305578063e0ddf35a14610318578063efa1c48214610338575f80fd5b80638ef578f61461026857806397ae82c214610288578063aad605351461029b578063bf45e59f146102ae578063c2e52206146102c1575f80fd5b8063334c3f0e116100ef578063334c3f0e146101c9578063431f43b3146101dc57806357536035146101fd5780636322961d1461021d5780637f24b49314610248575f80fd5b806305ab736c1461012b57806305cfa06f146101405780630f53a4701461018357806314b465b5146101a357806324118579146101b6575b5f80fd5b61013e6101393660046123d7565b61034d565b005b61016e61014e366004612408565b6001600160a01b03165f9081526020819052604090206002015460ff1690565b60405190151581526020015b60405180910390f35b610196610191366004612408565b6103e6565b60405161017a9190612556565b61013e6101b1366004612640565b61067d565b61013e6101c4366004612679565b610785565b61013e6101d73660046126c6565b61083f565b6101ef6101ea366004612771565b610b3d565b60405161017a9291906127bf565b61021061020b366004612408565b610e86565b60405161017a91906127ec565b61023061022b3660046126c6565b610f40565b6040516001600160a01b03909116815260200161017a565b61025b610256366004612408565b610fc1565b60405161017a91906127fb565b61027b610276366004612408565b611086565b60405161017a919061280a565b61013e610296366004612679565b61112c565b6101ef6102a9366004612771565b611291565b61013e6102bc36600461281c565b6115cd565b60025460405190815260200161017a565b61013e6102e03660046126c6565b611661565b6102f86102f3366004612408565b61187c565b60405161017a9190612844565b61013e610313366004612856565b611958565b61032b610326366004612408565b611b50565b60405161017a91906128a7565b610340611c10565b60405161017a91906128e0565b6001600160a01b0382165f9081526020819052604090206002015460ff166103885760405163430ad45f60e01b815260040160405180910390fd5b6001600160a01b0382165f908152602081905260408120600a8101805491926103b083612906565b919050555081156103d257600b81018054905f6103cc83612906565b91905055505b42600c8201556103e183611c70565b505050565b6103ee6122a9565b6001600160a01b0382165f9081526020819052604090206002015460ff166104295760405163430ad45f60e01b815260040160405180910390fd5b6001600160a01b038083165f90815260208181526040918290208251610100810190935280549093168252600183018054918301916104679061291e565b80601f01602080910402602001604051908101604052809291908181526020018280546104939061291e565b80156104de5780601f106104b5576101008083540402835291602001916104de565b820191905f5260205f20905b8154815290600101906020018083116104c157829003601f168201915b50505050508152602001826002015f9054906101000a900460ff16151581526020018260030154815260200182600401604051806101200160405290815f820154815260200160018201548152602001600282015481526020016003820154815260200160048201548152602001600582015481526020016006820154815260200160078201548152602001600882015481525050815260200182600d016040518060a00160405290815f8201548152602001600182015481526020016002820154815260200160038201548152602001600482015481525050815260200182601201604051806101000160405290815f8201548152602001600182015481526020016002820154815260200160038201548152602001600482015481526020016005820154815260200160068201548152602001600782015481525050815260200182601b0180548060200260200160405190810160405280929190818152602001828054801561066d57602002820191905f5260205f20905b815481526020019060010190808311610659575b5050505050815250915050919050565b6001600160a01b0383165f9081526020819052604090206002015460ff166106b85760405163430ad45f60e01b815260040160405180910390fd5b6001600160a01b0383165f90815260208190526040812060048101805491926106e083612906565b919050555081816004016002015f8282546106fb9190612956565b909155505042600c820155600681015460078201541061073357600681015460078201546107299190612969565b600882015561073a565b5f60088201555b8260ff165f0361075f57600d81018054905f61075583612906565b9190505550610776565b601281018054905f61077083612906565b91905055505b61077f84611c70565b50505050565b6001600160a01b0383165f9081526020819052604090206002015460ff166107c05760405163430ad45f60e01b815260040160405180910390fd5b6001600160a01b0383165f90815260208190526040902081156107fe5782816004016002015f8282546107f39190612956565b9091555061081a9050565b82816004016002015f8282546108149190612969565b90915550505b6006810154600782015461082e9190612969565b600882015542600c90910155505050565b335f9081526020819052604090206002015460ff1615610872576040516326f60c0560e11b815260040160405180910390fd5b80515f036108935760405163161f94db60e11b815260040160405180910390fd5b6020815111156108b65760405163161f94db60e11b815260040160405180910390fd5b5f6001600160a01b03166001826040516108d0919061297c565b908152604051908190036020019020546001600160a01b03161461090757604051639dc291e960e01b815260040160405180910390fd5b335f81815260208190526040902080546001600160a01b03191690911781556001810161093483826129dc565b5060028101805460ff19166001908117909155426003830181905560408051610120810182525f80825260208083018290528284018290526060808401839052608080850184905260a080860185905260c080870186905260e08088018790526101009788018a905260048c0187905560058c0187905560068c0187905560078c0187905560088c0187905560098c01879055600a8c01879055600b8c01879055600c8c0199909955875180830189528681528086018790528089018790528085018790528301869052600d8b01869055600e8b01869055600f8b0186905560108b0186905560118b0186905587519687018852858752938601859052858701859052918501849052840183905283018290528201819052920182905260128401829055601384018290556014840182905560158401829055601684018290556017840182905560188401829055601984019190915551339190610a9990859061297c565b90815260405190819003602001812080546001600160a01b03939093166001600160a01b0319938416179055600280546001810182555f919091527f405787fa12a823e0f2b7631cc41b3ba8828b3321ca811111fa75cd3aa3bb5ace018054909216339081179092557f25dbccf9f713a2b16ed5d635585b4778d0d7e66b7b631871e668a694131e5fad90610b319085904290612a98565b60405180910390a25050565b6060805f6002805490508410610b5557600254610b57565b835b90505f8167ffffffffffffffff811115610b7357610b736126b2565b604051908082528060200260200182016040528015610b9c578160200160208202803683370190505b5090505f8267ffffffffffffffff811115610bb957610bb96126b2565b604051908082528060200260200182016040528015610be2578160200160208202803683370190505b5090505f6002805480602002602001604051908101604052809291908181526020018280548015610c3a57602002820191905f5260205f20905b81546001600160a01b03168152600190910190602001808311610c1c575b505050505090505f5b8151811015610db1575f610c58826001612956565b90505b8251811015610d9e575f80848481518110610c7857610c78612ab9565b60200260200101516001600160a01b03166001600160a01b031681526020019081526020015f20600401600401545f80858481518110610cba57610cba612ab9565b60200260200101516001600160a01b03166001600160a01b031681526020019081526020015f20600401600401541115610d8c575f838381518110610d0157610d01612ab9565b60200260200101519050838281518110610d1d57610d1d612ab9565b6020026020010151848481518110610d3757610d37612ab9565b60200260200101906001600160a01b031690816001600160a01b03168152505080848381518110610d6a57610d6a612ab9565b60200260200101906001600160a01b031690816001600160a01b031681525050505b80610d9681612906565b915050610c5b565b5080610da981612906565b915050610c43565b505f5b84811015610e7957818181518110610dce57610dce612ab9565b6020026020010151848281518110610de857610de8612ab9565b60200260200101906001600160a01b031690816001600160a01b0316815250505f80838381518110610e1c57610e1c612ab9565b60200260200101516001600160a01b03166001600160a01b031681526020019081526020015f2060040160040154838281518110610e5c57610e5c612ab9565b602090810291909101015280610e7181612906565b915050610db4565b5091969095509350505050565b610e8e61232d565b6001600160a01b0382165f9081526020819052604090206002015460ff16610ec95760405163430ad45f60e01b815260040160405180910390fd5b506001600160a01b03165f9081526020818152604091829020825161010081018452601282015481526013820154928101929092526014810154928201929092526015820154606082015260168201546080820152601782015460a0820152601882015460c082015260199091015460e082015290565b5f806001600160a01b0316600183604051610f5b919061297c565b908152604051908190036020019020546001600160a01b031603610f925760405163430ad45f60e01b815260040160405180910390fd5b600182604051610fa2919061297c565b908152604051908190036020019020546001600160a01b031692915050565b610fc961236a565b6001600160a01b0382165f9081526020819052604090206002015460ff166110045760405163430ad45f60e01b815260040160405180910390fd5b506001600160a01b03165f9081526020818152604091829020825161012081018452600482015481526005820154928101929092526006810154928201929092526007820154606082015260088201546080820152600982015460a0820152600a82015460c0820152600b82015460e0820152600c9091015461010082015290565b6001600160a01b0381165f9081526020819052604090206002015460609060ff166110c45760405163430ad45f60e01b815260040160405180910390fd5b6001600160a01b0382165f9081526020818152604091829020601b018054835181840281018401909452808452909183018282801561112057602002820191905f5260205f20905b81548152602001906001019080831161110c575b50505050509050919050565b6001600160a01b0383165f9081526020819052604090206002015460ff166111675760405163430ad45f60e01b815260040160405180910390fd5b6001600160a01b0383165f908152602081905260408120600981018054919261118f83612906565b9091555050600a81018054905f6111a583612906565b909155505042600c82015581156111cd57600b81018054905f6111c783612906565b91905055505b601481018054905f6111de83612906565b9091555050601581018054905f6111f483612906565b9190505550811561121657601681018054905f61121083612906565b91905055505b601581015415611246576015810154601682015461123690612710612acd565b6112409190612ae4565b60178201555b811561128257601981018054905f61125d83612906565b909155505060188101546019820154111561127d57601981015460188201555b610776565b5f601982015561077f84611c70565b6060805f60028054905084106112a9576002546112ab565b835b90505f8167ffffffffffffffff8111156112c7576112c76126b2565b6040519080825280602002602001820160405280156112f0578160200160208202803683370190505b5090505f8267ffffffffffffffff81111561130d5761130d6126b2565b604051908082528060200260200182016040528015611336578160200160208202803683370190505b5090505f600280548060200260200160405190810160405280929190818152602001828054801561138e57602002820191905f5260205f20905b81546001600160a01b03168152600190910190602001808311611370575b505050505090505f5b8151811015611505575f6113ac826001612956565b90505b82518110156114f2575f808484815181106113cc576113cc612ab9565b60200260200101516001600160a01b03166001600160a01b031681526020019081526020015f20600401600101545f8085848151811061140e5761140e612ab9565b60200260200101516001600160a01b03166001600160a01b031681526020019081526020015f206004016001015411156114e0575f83838151811061145557611455612ab9565b6020026020010151905083828151811061147157611471612ab9565b602002602001015184848151811061148b5761148b612ab9565b60200260200101906001600160a01b031690816001600160a01b031681525050808483815181106114be576114be612ab9565b60200260200101906001600160a01b031690816001600160a01b031681525050505b806114ea81612906565b9150506113af565b50806114fd81612906565b915050611397565b505f5b84811015610e795781818151811061152257611522612ab9565b602002602001015184828151811061153c5761153c612ab9565b60200260200101906001600160a01b031690816001600160a01b0316815250505f8083838151811061157057611570612ab9565b60200260200101516001600160a01b03166001600160a01b031681526020019081526020015f20600401600101548382815181106115b0576115b0612ab9565b6020908102919091010152806115c581612906565b915050611508565b6001600160a01b0382165f9081526020819052604090206002015460ff166116085760405163430ad45f60e01b815260040160405180910390fd5b6001600160a01b0382165f90815260208190526040812060078101805491928492611634908490612956565b90915550506006810154600782015461164d9190612969565b600882015542600c8201556103e183611c70565b335f9081526020819052604090206002015460ff166116935760405163430ad45f60e01b815260040160405180910390fd5b80515f036116b45760405163161f94db60e11b815260040160405180910390fd5b6020815111156116d75760405163161f94db60e11b815260040160405180910390fd5b5f6001600160a01b03166001826040516116f1919061297c565b908152604051908190036020019020546001600160a01b03161461172857604051639dc291e960e01b815260040160405180910390fd5b335f90815260208190526040812060010180546117449061291e565b80601f01602080910402602001604051908101604052809291908181526020018280546117709061291e565b80156117bb5780601f10611792576101008083540402835291602001916117bb565b820191905f5260205f20905b81548152906001019060200180831161179e57829003601f168201915b505050505090506001816040516117d2919061297c565b908152604080516020928190038301902080546001600160a01b0319169055335f90815291829052902060010161180983826129dc565b503360018360405161181b919061297c565b90815260405190819003602001812080546001600160a01b03939093166001600160a01b03199093169290921790915533907fdcb94c0b2c025b0736b4b62b1c595f2ca7ad4c711eada6026d477e87de9cca0890610b319085904290612a98565b6001600160a01b0381165f9081526020819052604090206002015460609060ff166118ba5760405163430ad45f60e01b815260040160405180910390fd5b6001600160a01b0382165f90815260208190526040902060010180546118df9061291e565b80601f016020809104026020016040519081016040528092919081815260200182805461190b9061291e565b80156111205780601f1061192d57610100808354040283529160200191611120565b820191905f5260205f20905b8154815290600101906020018083116119395750939695505050505050565b6001600160a01b0385165f9081526020819052604090206002015460ff166119935760405163430ad45f60e01b815260040160405180910390fd5b6001600160a01b0385165f90815260208190526040812060058101805491926119bb83612906565b919050555083816004016003015f8282546119d69190612956565b90915550506006810154600782015410611a0857600681015460078201546119fe9190612969565b6008820155611a0f565b5f60088201555b42600c82015560ff83165f03611a6557600e81018054905f611a3083612906565b91905055505f82118015611a535750600f8101541580611a535750600f81015482105b15611a6057600f81018290555b611a7c565b601381018054905f611a7683612906565b91905055505b856001600160a01b0316856001600160a01b031614158015611ab857506001600160a01b0385165f9081526020819052604090206002015460ff165b15611b3f576001600160a01b0385165f9081526020819052604090206064611ae186600a612acd565b611aeb9190612ae4565b6007820180545f90611afe908490612956565b90915550506006810154600782015410611b305760068101546007820154611b269190612969565b6008820155611b37565b5f60088201555b42600c909101555b611b4886611c70565b505050505050565b611b7d6040518060a001604052805f81526020015f81526020015f81526020015f81526020015f81525090565b6001600160a01b0382165f9081526020819052604090206002015460ff16611bb85760405163430ad45f60e01b815260040160405180910390fd5b506001600160a01b03165f9081526020818152604091829020825160a081018452600d8201548152600e82015492810192909252600f8101549282019290925260108201546060820152601190910154608082015290565b60606002805480602002602001604051908101604052809291908181526020018280548015611c6657602002820191905f5260205f20905b81546001600160a01b03168152600190910190602001808311611c48575b5050505050905090565b6001600160a01b0381165f90815260208190526040902060058101546001148015611ca35750611ca18260016121b2565b155b15611d0d57611d0d8260016040518060400160405280600b81526020016a119a5c9cdd08109b1bdbd960aa1b8152506040518060400160405280601981526020017f466f756e6420796f75722066697273742074726561737572650000000000000081525061223b565b6005810154600a11801590611d2a5750611d288260026121b2565b155b15611d8d57611d8d8260026040518060400160405280600f81526020016e2a3932b0b9bab93290243ab73a32b960891b81525060405180604001604052806012815260200171466f756e642031302074726561737572657360701b81525061223b565b6005810154603211801590611daa5750611da88260036121b2565b155b15611e0b57611e0b8260036040518060400160405280600d81526020016c26b0b9ba32b910243ab73a32b960991b81525060405180604001604052806012815260200171466f756e642035302074726561737572657360701b81525061223b565b6004810154600511801590611e285750611e268260046121b2565b155b15611e8457611e848260046040518060400160405280600781526020016621b932b0ba37b960c91b815250604051806040016040528060138152602001724372656174656420352074726561737572657360681b81525061223b565b6004810154601411801590611ea15750611e9f8260056121b2565b155b15611f0557611f058260056040518060400160405280600e81526020016d26b0b9ba32b91021b932b0ba37b960911b81525060405180604001604052806014815260200173437265617465642032302074726561737572657360601b81525061223b565b601781015461232811801590611f235750611f218260066121b2565b155b15611f8657611f868260066040518060400160405280600c81526020016b29b430b93839b437b7ba32b960a11b8152506040518060400160405280601581526020017441636869657665642039302520616363757261637960581b81525061223b565b6018810154600a11801590611fa35750611fa18260076121b2565b155b1561200f5761200f8260076040518060400160405280600d81526020016c29ba3932b0b59026b0b9ba32b960991b8152506040518060400160405280601e81526020017f313020636f6e736563757469766520636f72726563742067756573736573000081525061223b565b600f810154158015906120285750600f810154610e1010155b801561203c575061203a8260086121b2565b155b156120a6576120a68260086040518060400160405280600b81526020016a29b832b2b2102232b6b7b760a91b8152506040518060400160405280602081526020017f466f756e64206120747265617375726520696e20756e646572203120686f757281525061223b565b600781015469d3c21bcecceda1000000118015906120cc57506120ca8260096121b2565b155b15612136576121368260096040518060400160405280600b81526020016a4d696c6c696f6e6169726560a81b8152506040518060400160405280601781526020017f4561726e656420312c3030302c30303020746f6b656e7300000000000000000081525061223b565b6005810154606411801590612153575061215182600a6121b2565b155b156121ae576121ae82600a60405180604001604052806006815260200165131959d95b9960d21b81525060405180604001604052806013815260200172466f756e64203130302074726561737572657360681b81525061223b565b5050565b5f805b6001600160a01b0384165f908152602081905260409020601b0154811015612230576001600160a01b0384165f908152602081905260409020601b0180548491908390811061220657612206612ab9565b905f5260205f2001540361221e576001915050612235565b8061222881612906565b9150506121b5565b505f90505b92915050565b6001600160a01b0384165f81815260208181526040808320601b0180546001810182559084529190922001859055517f4c3504571cba9da316ed0548cc39a65a42b1735670e0b30d7098e28a693de7619061229b90869086904290612b03565b60405180910390a250505050565b6040518061010001604052805f6001600160a01b03168152602001606081526020015f151581526020015f81526020016122e161236a565b81526020016123136040518060a001604052805f81526020015f81526020015f81526020015f81526020015f81525090565b815260200161232061232d565b8152602001606081525090565b6040518061010001604052805f81526020015f81526020015f81526020015f81526020015f81526020015f81526020015f81526020015f81525090565b6040518061012001604052805f81526020015f81526020015f81526020015f81526020015f81526020015f81526020015f81526020015f81526020015f81525090565b80356001600160a01b03811681146123c3575f80fd5b919050565b803580151581146123c3575f80fd5b5f80604083850312156123e8575f80fd5b6123f1836123ad565b91506123ff602084016123c8565b90509250929050565b5f60208284031215612418575f80fd5b612421826123ad565b9392505050565b5f5b8381101561244257818101518382015260200161242a565b50505f910152565b5f8151808452612461816020860160208601612428565b601f01601f19169290920160200192915050565b805182526020810151602083015260408101516040830152606081015160608301526080810151608083015260a081015160a083015260c081015160c083015260e081015160e08301526101008082015181840152505050565b805182526020810151602083015260408101516040830152606081015160608301526080810151608083015260a081015160a083015260c081015160c083015260e081015160e08301525050565b5f8151808452602080850194508084015f5b8381101561254b5781518752958201959082019060010161252f565b509495945050505050565b602081526125706020820183516001600160a01b03169052565b5f602083015161036080604085015261258d61038085018361244a565b915060408501516125a2606086018215159052565b506060850151608085015260808501516125bf60a0860182612475565b5060a085015180516101c086015260208101516101e0860152604081015161020086015260608101516102208601526080015161024085015260c085015161260b6102608601826124cf565b5060e0850151848303601f190182860152612626838261251d565b9695505050505050565b803560ff811681146123c3575f80fd5b5f805f60608486031215612652575f80fd5b61265b846123ad565b925061266960208501612630565b9150604084013590509250925092565b5f805f6060848603121561268b575f80fd5b612694846123ad565b9250602084013591506126a9604085016123c8565b90509250925092565b634e487b7160e01b5f52604160045260245ffd5b5f602082840312156126d6575f80fd5b813567ffffffffffffffff808211156126ed575f80fd5b818401915084601f830112612700575f80fd5b813581811115612712576127126126b2565b604051601f8201601f19908116603f0116810190838211818310171561273a5761273a6126b2565b81604052828152876020848701011115612752575f80fd5b826020860160208301375f928101602001929092525095945050505050565b5f60208284031215612781575f80fd5b5035919050565b5f8151808452602080850194508084015f5b8381101561254b5781516001600160a01b03168752958201959082019060010161279a565b604081525f6127d16040830185612788565b82810360208401526127e3818561251d565b95945050505050565b610100810161223582846124cf565b61012081016122358284612475565b602081525f612421602083018461251d565b5f806040838503121561282d575f80fd5b612836836123ad565b946020939093013593505050565b602081525f612421602083018461244a565b5f805f805f60a0868803121561286a575f80fd5b612873866123ad565b9450612881602087016123ad565b93506040860135925061289660608701612630565b949793965091946080013592915050565b60a08101612235828480518252602081015160208301526040810151604083015260608101516060830152608081015160808301525050565b602081525f6124216020830184612788565b634e487b7160e01b5f52601160045260245ffd5b5f60018201612917576129176128f2565b5060010190565b600181811c9082168061293257607f821691505b60208210810361295057634e487b7160e01b5f52602260045260245ffd5b50919050565b80820180821115612235576122356128f2565b81810381811115612235576122356128f2565b5f825161298d818460208701612428565b9190910192915050565b601f8211156103e1575f81815260208120601f850160051c810160208610156129bd5750805b601f850160051c820191505b81811015611b48578281556001016129c9565b815167ffffffffffffffff8111156129f6576129f66126b2565b612a0a81612a04845461291e565b84612997565b602080601f831160018114612a3d575f8415612a265750858301515b5f19600386901b1c1916600185901b178555611b48565b5f85815260208120601f198616915b82811015612a6b57888601518255948401946001909101908401612a4c565b5085821015612a8857878501515f19600388901b60f8161c191681555b5050505050600190811b01905550565b604081525f612aaa604083018561244a565b90508260208301529392505050565b634e487b7160e01b5f52603260045260245ffd5b8082028115828204841417612235576122356128f2565b5f82612afe57634e487b7160e01b5f52601260045260245ffd5b500490565b838152606060208201525f612b1b606083018561244a565b905082604083015294935050505056fea2646970667358221220c8aa8bf818da71e4fa461176059d016211a7fb6f2679ea72ea3aae1c18c5187964736f6c63430008140033","linkReferences":{}},"methodIdentifiers":{"createProfile(string)":"334c3f0e","getAchievements(address)":"8ef578f6","getAddressByUsername(string)":"6322961d","getAllPlayers()":"efa1c482","getGlobalStats(address)":"7f24b493","getLeaderboardByEarnings(uint256)":"431f43b3","getLeaderboardByTreasuresFound(uint256)":"aad60535","getPlayerCount()":"c2e52206","getProfile(address)":"0f53a470","getRealWorldStats(address)":"e0ddf35a","getUsername(address)":"ce43c032","getVirtualStats(address)":"57536035","profileExists(address)":"05cfa06f","updateOnGuessSubmitted(address,bool)":"05ab736c","updateOnReward(address,uint256)":"bf45e59f","updateOnStake(address,uint256,bool)":"24118579","updateOnTreasureCreated(address,uint8,uint256)":"14b465b5","updateOnTreasureFound(address,address,uint256,uint8,uint256)":"d92bdb4c","updateOnTurnPlayed(address,uint256,bool)":"97ae82c2","updateUsername(string)":"c96cea70"},"id":29}