{"abi":[{"type":"function","name":"checkAndAdvanceTurn","inputs":[{"name":"treasureId","type":"uint256","internalType":"uint256"}],"outputs":[{"name":"isComplete","type":"bool","internalType":"bool"}],"stateMutability":"nonpayable"},{"type":"function","name":"endTurnManagement","inputs":[{"name":"treasureId","type":"uint256","internalType":"uint256"}],"outputs":[],"stateMutability":"nonpayable"},{"type":"function","name":"forceTimeout","inputs":[{"name":"treasureId","type":"uint256","internalType":"uint256"}],"outputs":[],"stateMutability":"nonpayable"},{"type":"function","name":"getCurrentTurnNumber","inputs":[{"name":"treasureId","type":"uint256","internalType":"uint256"}],"outputs":[{"name":"","type":"uint256","internalType":"uint256"}],"stateMutability":"view"},{"type":"function","name":"getCurrentTurnPlayers","inputs":[{"name":"treasureId","type":"uint256","internalType":"uint256"}],"outputs":[{"name":"","type":"address[]","internalType":"address[]"}],"stateMutability":"view"},{"type":"function","name":"getPendingPlayers","inputs":[{"name":"treasureId","type":"uint256","internalType":"uint256"}],"outputs":[{"name":"","type":"address[]","internalType":"address[]"}],"stateMutability":"view"},{"type":"function","name":"getPlayerGuess","inputs":[{"name":"treasureId","type":"uint256","internalType":"uint256"},{"name":"turnNumber","type":"uint256","internalType":"uint256"},{"name":"player","type":"address","internalType":"address"}],"outputs":[{"name":"","type":"tuple","internalType":"struct TurnTypes.GuessData","components":[{"name":"player","type":"address","internalType":"address"},{"name":"guessHash","type":"bytes32","internalType":"bytes32"},{"name":"timestamp","type":"uint256","internalType":"uint256"},{"name":"isValid","type":"bool","internalType":"bool"},{"name":"isCorrect","type":"bool","internalType":"bool"}]}],"stateMutability":"view"},{"type":"function","name":"getTurnConfig","inputs":[{"name":"treasureId","type":"uint256","internalType":"uint256"}],"outputs":[{"name":"","type":"tuple","internalType":"struct TurnTypes.TurnConfig","components":[{"name":"turnDuration","type":"uint256","internalType":"uint256"},{"name":"maxPlayers","type":"uint256","internalType":"uint256"},{"name":"timeoutEnabled","type":"bool","internalType":"bool"},{"name":"timeoutDuration","type":"uint256","internalType":"uint256"}]}],"stateMutability":"view"},{"type":"function","name":"getTurnData","inputs":[{"name":"treasureId","type":"uint256","internalType":"uint256"},{"name":"turnNumber","type":"uint256","internalType":"uint256"}],"outputs":[{"name":"","type":"tuple","internalType":"struct TurnTypes.TurnData","components":[{"name":"turnNumber","type":"uint256","internalType":"uint256"},{"name":"startTime","type":"uint256","internalType":"uint256"},{"name":"endTime","type":"uint256","internalType":"uint256"},{"name":"players","type":"address[]","internalType":"address[]"},{"name":"playersSubmitted","type":"address[]","internalType":"address[]"},{"name":"isCompleted","type":"bool","internalType":"bool"},{"name":"winner","type":"address","internalType":"address"},{"name":"correctGuessFound","type":"bool","internalType":"bool"},{"name":"totalGuesses","type":"uint256","internalType":"uint256"}]}],"stateMutability":"view"},{"type":"function","name":"handleCorrectGuess","inputs":[{"name":"treasureId","type":"uint256","internalType":"uint256"},{"name":"winner","type":"address","internalType":"address"},{"name":"rewardAmount","type":"uint256","internalType":"uint256"}],"outputs":[{"name":"turnNumber","type":"uint256","internalType":"uint256"}],"stateMutability":"nonpayable"},{"type":"function","name":"hasPlayerSubmitted","inputs":[{"name":"treasureId","type":"uint256","internalType":"uint256"},{"name":"turnNumber","type":"uint256","internalType":"uint256"},{"name":"player","type":"address","internalType":"address"}],"outputs":[{"name":"","type":"bool","internalType":"bool"}],"stateMutability":"view"},{"type":"function","name":"initializeTurnManagement","inputs":[{"name":"treasureId","type":"uint256","internalType":"uint256"},{"name":"turnDuration","type":"uint256","internalType":"uint256"},{"name":"maxPlayers","type":"uint256","internalType":"uint256"},{"name":"enableTimeout","type":"bool","internalType":"bool"}],"outputs":[],"stateMutability":"nonpayable"},{"type":"function","name":"isTurnActive","inputs":[{"name":"treasureId","type":"uint256","internalType":"uint256"}],"outputs":[{"name":"","type":"bool","internalType":"bool"}],"stateMutability":"view"},{"type":"function","name":"resetTurnCounters","inputs":[{"name":"treasureId","type":"uint256","internalType":"uint256"}],"outputs":[],"stateMutability":"nonpayable"},{"type":"function","name":"startNewTurn","inputs":[{"name":"treasureId","type":"uint256","internalType":"uint256"},{"name":"players","type":"address[]","internalType":"address[]"}],"outputs":[{"name":"turnNumber","type":"uint256","internalType":"uint256"}],"stateMutability":"nonpayable"},{"type":"function","name":"submitGuess","inputs":[{"name":"treasureId","type":"uint256","internalType":"uint256"},{"name":"guessHash","type":"bytes32","internalType":"bytes32"}],"outputs":[],"stateMutability":"nonpayable"},{"type":"event","name":"AchievementEarned","inputs":[{"name":"player","type":"address","indexed":true,"internalType":"address"},{"name":"achievementId","type":"uint256","indexed":false,"internalType":"uint256"},{"name":"achievementName","type":"string","indexed":false,"internalType":"string"},{"name":"timestamp","type":"uint256","indexed":false,"internalType":"uint256"}],"anonymous":false},{"type":"event","name":"ExpiredTreasureRemoved","inputs":[{"name":"treasureId","type":"uint256","indexed":true,"internalType":"uint256"},{"name":"timestamp","type":"uint256","indexed":false,"internalType":"uint256"}],"anonymous":false},{"type":"event","name":"GamePaused","inputs":[{"name":"pauser","type":"address","indexed":true,"internalType":"address"}],"anonymous":false},{"type":"event","name":"GameUnpaused","inputs":[{"name":"unpauser","type":"address","indexed":true,"internalType":"address"}],"anonymous":false},{"type":"event","name":"GuessSubmitted","inputs":[{"name":"treasureId","type":"uint256","indexed":true,"internalType":"uint256"},{"name":"turnNumber","type":"uint256","indexed":true,"internalType":"uint256"},{"name":"player","type":"address","indexed":true,"internalType":"address"},{"name":"guessHash","type":"bytes32","indexed":false,"internalType":"bytes32"},{"name":"timestamp","type":"uint256","indexed":false,"internalType":"uint256"}],"anonymous":false},{"type":"event","name":"HintReleased","inputs":[{"name":"treasureId","type":"uint256","indexed":true,"internalType":"uint256"},{"name":"hintIndex","type":"uint256","indexed":false,"internalType":"uint256"},{"name":"hintContent","type":"string","indexed":false,"internalType":"string"},{"name":"releaseTime","type":"uint256","indexed":false,"internalType":"uint256"}],"anonymous":false},{"type":"event","name":"ProfileCreated","inputs":[{"name":"player","type":"address","indexed":true,"internalType":"address"},{"name":"username","type":"string","indexed":false,"internalType":"string"},{"name":"timestamp","type":"uint256","indexed":false,"internalType":"uint256"}],"anonymous":false},{"type":"event","name":"ProfileUpdated","inputs":[{"name":"player","type":"address","indexed":true,"internalType":"address"},{"name":"newUsername","type":"string","indexed":false,"internalType":"string"},{"name":"timestamp","type":"uint256","indexed":false,"internalType":"uint256"}],"anonymous":false},{"type":"event","name":"RewardDistributed","inputs":[{"name":"treasureId","type":"uint256","indexed":true,"internalType":"uint256"},{"name":"recipient","type":"address","indexed":true,"internalType":"address"},{"name":"amount","type":"uint256","indexed":false,"internalType":"uint256"},{"name":"rewardType","type":"uint8","indexed":false,"internalType":"uint8"},{"name":"multiplier","type":"uint256","indexed":false,"internalType":"uint256"}],"anonymous":false},{"type":"event","name":"StakingRewardDistributed","inputs":[{"name":"player","type":"address","indexed":true,"internalType":"address"},{"name":"amount","type":"uint256","indexed":false,"internalType":"uint256"},{"name":"timeStaked","type":"uint256","indexed":false,"internalType":"uint256"}],"anonymous":false},{"type":"event","name":"TreasureCreated","inputs":[{"name":"treasureId","type":"uint256","indexed":true,"internalType":"uint256"},{"name":"creator","type":"address","indexed":true,"internalType":"address"},{"name":"mode","type":"uint8","indexed":false,"internalType":"uint8"},{"name":"stakeAmount","type":"uint256","indexed":false,"internalType":"uint256"},{"name":"timestamp","type":"uint256","indexed":false,"internalType":"uint256"}],"anonymous":false},{"type":"event","name":"TreasureFound","inputs":[{"name":"treasureId","type":"uint256","indexed":true,"internalType":"uint256"},{"name":"finder","type":"address","indexed":true,"internalType":"address"},{"name":"creator","type":"address","indexed":true,"internalType":"address"},{"name":"rewardAmount","type":"uint256","indexed":false,"internalType":"uint256"},{"name":"timestamp","type":"uint256","indexed":false,"internalType":"uint256"}],"anonymous":false},{"type":"event","name":"TreasureRemoved","inputs":[{"name":"treasureId","type":"uint256","indexed":true,"internalType":"uint256"},{"name":"creator","type":"address","indexed":true,"internalType":"address"},{"name":"stakeReturned","type":"uint256","indexed":false,"internalType":"uint256"},{"name":"reason","type":"string","indexed":false,"internalType":"string"}],"anonymous":false},{"type":"event","name":"TurnCompleted","inputs":[{"name":"treasureId","type":"uint256","indexed":true,"internalType":"uint256"},{"name":"turnNumber","type":"uint256","indexed":true,"internalType":"uint256"},{"name":"winner","type":"address","indexed":false,"internalType":"address"},{"name":"correctGuessFound","type":"bool","indexed":false,"internalType":"bool"}],"anonymous":false},{"type":"event","name":"TurnInitialized","inputs":[{"name":"treasureId","type":"uint256","indexed":true,"internalType":"uint256"},{"name":"turnNumber","type":"uint256","indexed":false,"internalType":"uint256"},{"name":"players","type":"address[]","indexed":false,"internalType":"address[]"},{"name":"startTime","type":"uint256","indexed":false,"internalType":"uint256"},{"name":"endTime","type":"uint256","indexed":false,"internalType":"uint256"}],"anonymous":false},{"type":"error","name":"Turn__AlreadySubmitted","inputs":[]},{"type":"error","name":"Turn__InvalidPlayer","inputs":[]},{"type":"error","name":"Turn__MaxPlayersExceeded","inputs":[]},{"type":"error","name":"Turn__NoActiveTurn","inputs":[]},{"type":"error","name":"Turn__TimeoutNotReached","inputs":[]},{"type":"error","name":"Turn__TurnAlreadyCompleted","inputs":[]}],"bytecode":{"object":"0x608060405234801561000f575f80fd5b506119b68061001d5f395ff3fe608060405234801561000f575f80fd5b50600436106100fb575f3560e01c80637aba788911610093578063e4d33ee311610063578063e4d33ee31461027b578063e6cd5ab31461028e578063ef0c116d146102a1578063fc4dc897146102c0575f80fd5b80637aba788914610221578063b922d7aa14610234578063b99e6e4814610247578063c9b916581461025a575f80fd5b80633513898f116100ce5780633513898f146101c857806340751bda146101db5780634a907fcd146101ee5780635d06bdd214610201575f80fd5b80630645c777146100ff5780630921f45a14610136578063160a28f61461014b5780631eb85b9d1461016b575b5f80fd5b61012161010d3660046115b6565b5f9081526003602052604090205460ff1690565b60405190151581526020015b60405180910390f35b6101496101443660046115b6565b610308565b005b61015e6101593660046115cd565b610421565b60405161012d919061162f565b61017e6101793660046116f5565b610451565b60405161012d919081516001600160a01b03168152602080830151908201526040808301519082015260608083015115159082015260809182015115159181019190915260a00190565b6101496101d63660046115b6565b61049f565b6101216101e93660046115b6565b6105d5565b6101216101fc3660046116f5565b6106fc565b61021461020f3660046115b6565b61071c565b60405161012d9190611727565b61021461022f3660046115b6565b610866565b610149610242366004611739565b6108e2565b6101496102553660046115b6565b610988565b61026d61026836600461178f565b610a48565b60405190815260200161012d565b6101496102893660046115cd565b610bc4565b61026d61029c36600461185b565b610cc9565b61026d6102af3660046115b6565b5f9081526001602052604090205490565b6102d36102ce3660046115b6565b610e34565b60405161012d919081518152602080830151908201526040808301511515908201526060918201519181019190915260800190565b5f8181526003602052604090205460ff16610336576040516378dfdbf360e11b815260040160405180910390fd5b5f818152600360208181526040808420805460ff1916905560018252808420548483528185208186528352818520909301805482518185028101850190935280835293949391929091908301828280156103b757602002820191905f5260205f20905b81546001600160a01b03168152600190910190602001808311610399575b505050505090505f5b815181101561041b5760045f8383815181106103de576103de61188d565b60200260200101516001600160a01b03166001600160a01b031681526020019081526020015f205f90558080610413906118b5565b9150506103c0565b50505050565b6104296114cf565b5f83815260208181526040808320858452909152902061044890610ea3565b90505b92915050565b6040805160a0810182525f808252602080830182905282840182905260608301829052608083018290528682528181528382208683529052919091206104979083610fd9565b949350505050565b5f8181526003602052604090205460ff166104cd576040516378dfdbf360e11b815260040160405180910390fd5b5f818152600260208190526040909120015460ff166104ff57604051636eeca10560e11b815260040160405180910390fd5b5f8181526001602090815260408083205483835281842081855290925290912061052881611094565b61054557604051636eeca10560e11b815260040160405180910390fd5b600681015460ff161561056b576040516308c1990760e11b815260040160405180910390fd5b610576815f806110af565b5f83815260016020526040812080549161058f836118b5565b9091555050604080515f8082526020820152839185917f426610d806ba6c2ff4dd880179dfeafed3ce287cfbdcaf9fdb296e678b759791910160405180910390a3505050565b5f8181526003602052604081205460ff16610603576040516378dfdbf360e11b815260040160405180910390fd5b5f82815260016020908152604080832054838352818420818552909252822060038101546005820154929391920361063d5750600161066b565b5f858152600260208190526040909120015460ff168015610662575061066282611094565b1561066b575060015b80801561067d5750600682015460ff16155b156106f25761068d825f806110af565b5f8581526001602052604081208054916106a6836118b5565b9091555050604080515f8082526020820152849187917f426610d806ba6c2ff4dd880179dfeafed3ce287cfbdcaf9fdb296e678b759791910160405180910390a3506001949350505050565b505f949350505050565b5f8381526020818152604080832085845290915281206104979083611119565b5f8181526001602090815260408083205483835281842081855290925282206005810154600382015460609491610752916118cd565b90505f8167ffffffffffffffff81111561076e5761076e61177b565b604051908082528060200260200182016040528015610797578160200160208202803683370190505b5090505f805b600385015481101561085a576107dc8560030182815481106107c1576107c161188d565b5f9182526020909120015486906001600160a01b0316611119565b610848578460030181815481106107f5576107f561188d565b905f5260205f20015f9054906101000a90046001600160a01b03168383815181106108225761082261188d565b6001600160a01b039092166020928302919091019091015281610844816118b5565b9250505b80610852816118b5565b91505061079d565b50909695505050505050565b5f818152600160209081526040808320548383528184208185528352928190206003018054825181850281018501909352808352606094938301828280156108d557602002820191905f5260205f20905b81546001600160a01b031681526001909101906020018083116108b7575b5050505050915050919050565b5f8481526003602052604090205460ff1615610911576040516308c1990760e11b815260040160405180910390fd5b604080516080810182529384526020808501938452911515848201908152610e10606086019081525f96875260028085528388209651875594516001808801919091559151948601805495151560ff1996871617905551600395860155808352818620819055939091529092208054909216179055565b5f8181526003602052604090205460ff166109b6576040516378dfdbf360e11b815260040160405180910390fd5b5f818152600160209081526040808320548383528184208185529092529091206109df8161113c565b827f661861d17415ea52d00f6c08f1afbe4da657d212a0a485053be194064f7ea6d3610a0c8460016118e0565b5f8681526002602052604090205460038501904290610a2b90826118e0565b604051610a3b94939291906118f3565b60405180910390a2505050565b5f8281526003602052604081205460ff16610a76576040516378dfdbf360e11b815260040160405180910390fd5b81515f03610a975760405163c3561b9760e01b815260040160405180910390fd5b5f8381526002602052604090206001015482511115610ac957604051637cfff05b60e11b815260040160405180910390fd5b505f8281526001602090815260408083205483835281842081855283528184208685526002909352922054610b03908290849086906111ec565b5f5b8351811015610b62578460045f868481518110610b2457610b2461188d565b60200260200101516001600160a01b03166001600160a01b031681526020019081526020015f20819055508080610b5a906118b5565b915050610b05565b505f8481526002602052604090205484907f661861d17415ea52d00f6c08f1afbe4da657d212a0a485053be194064f7ea6d390849086904290610ba590826118e0565b604051610bb59493929190611955565b60405180910390a25092915050565b5f8281526003602052604090205460ff16610bf2576040516378dfdbf360e11b815260040160405180910390fd5b5f82815260016020908152604080832054838352818420818552909252909120600681015460ff1615610c38576040516308c1990760e11b815260040160405180910390fd5b806002015442118015610c5c57505f848152600260208190526040909120015460ff165b15610c7a57604051636eeca10560e11b815260040160405180910390fd5b610c85813385611289565b604080518481524260208201523391849187917fba7758f20b43d4c55f591af136e9ef569abc94d55a26857dca201e67b3a7c4c4910160405180910390a450505050565b5f8381526003602052604081205460ff16610cf7576040516378dfdbf360e11b815260040160405180910390fd5b505f83815260016020908152604080832054838352818420818552909252909120600681015460ff1615610d3e576040516308c1990760e11b815260040160405180910390fd5b610d488185611119565b610d655760405163c3561b9760e01b815260040160405180910390fd5b610d6f81856113eb565b610d7b818560016110af565b604080516001600160a01b038616815260016020820152839187917f426610d806ba6c2ff4dd880179dfeafed3ce287cfbdcaf9fdb296e678b759791910160405180910390a3604080518481525f60208201526127108183015290516001600160a01b0386169187917ff9d474b2211935c1d8b831165c77a81e0a88a30447c8affed208ab473aa6f4139181900360600190a35f858152600160205260408120805491610e27836118b5565b9190505550509392505050565b610e5d60405180608001604052805f81526020015f81526020015f151581526020015f81525090565b505f908152600260208181526040928390208351608081018552815481526001820154928101929092529182015460ff1615159281019290925260030154606082015290565b610eab6114cf565b604051806101200160405280835f01548152602001836001015481526020018360020154815260200183600301805480602002602001604051908101604052809291908181526020018280548015610f2a57602002820191905f5260205f20905b81546001600160a01b03168152600190910190602001808311610f0c575b5050505050815260200183600501805480602002602001604051908101604052809291908181526020018280548015610f8a57602002820191905f5260205f20905b81546001600160a01b03168152600190910190602001808311610f6c575b5050509183525050600684015460ff808216151560208401526001600160a01b036101008304166040840152600160a81b90910416151560608201526007909301546080909301929092525090565b6040805160a0810182525f8082526020820181905291810182905260608101829052608081019190915261100d8383611119565b61102a5760405163c3561b9760e01b815260040160405180910390fd5b506001600160a01b038082165f908152600484016020908152604091829020825160a081018452815490941684526001810154918401919091526002810154918301919091526003015460ff80821615156060840152610100909104161515608082015292915050565b5f81600201544211801561044b5750506006015460ff161590565b600683015460ff16156110d5576040516308c1990760e11b815260040160405180910390fd5b60069092018054921515600160a81b0260ff60a81b196001600160a01b03909316610100026001600160a81b03199094169390931760011791909116919091179055565b6001600160a01b03165f9081526004919091016020526040902060020154151590565b6006810180546001600160b01b031916905561115b600582015f611521565b5f600782018190555b60038201548110156111e857816004015f83600301838154811061118a5761118a61188d565b5f9182526020808320909101546001600160a01b03168352820192909252604001812080546001600160a01b0319168155600181018290556002810191909155600301805461ffff19169055806111e0816118b5565b915050611164565b5050565b81515f0361120d5760405163c3561b9760e01b815260040160405180910390fd5b60648251111561123057604051637cfff05b60e11b815260040160405180910390fd5b82845542600185018190556112469082906118e0565b60028501558151611260906003860190602085019061153f565b5060068401805460ff60ff60a81b01191690555f6007850181905561041b906005860190611521565b600683015460ff16156112af576040516308c1990760e11b815260040160405180910390fd5b82600201544211156112d457604051636eeca10560e11b815260040160405180910390fd5b6112de8383611119565b156112fc5760405163258472a560e21b815260040160405180910390fd5b6113068383611463565b6113235760405163c3561b9760e01b815260040160405180910390fd5b6040805160a0810182526001600160a01b038085168083526020808401868152428587019081526001606087018181525f6080890181815287825260048e0187529981208951815499166001600160a01b0319998a16178155945185840155925160028501555160039093018054985115156101000261ff00199415159490941661ffff1990991698909817929092179096556005890180549182018155865290852001805490921617905560078501805491926113e0836118b5565b919050555050505050565b6113f58282611119565b6114125760405163c3561b9760e01b815260040160405180910390fd5b6001600160a01b03165f8181526004830160205260409020600301805461ff0019166101009081179091556006909201805492909102610100600160b01b031990921691909117600160a81b179055565b5f805b60038401548110156114c657826001600160a01b03168460030182815481106114915761149161188d565b5f918252602090912001546001600160a01b0316036114b457600191505061044b565b806114be816118b5565b915050611466565b505f9392505050565b6040518061012001604052805f81526020015f81526020015f815260200160608152602001606081526020015f151581526020015f6001600160a01b031681526020015f151581526020015f81525090565b5080545f8255905f5260205f209081019061153c91906115a2565b50565b828054828255905f5260205f20908101928215611592579160200282015b8281111561159257825182546001600160a01b0319166001600160a01b0390911617825560209092019160019091019061155d565b5061159e9291506115a2565b5090565b5b8082111561159e575f81556001016115a3565b5f602082840312156115c6575f80fd5b5035919050565b5f80604083850312156115de575f80fd5b50508035926020909101359150565b5f8151808452602080850194508084015f5b838110156116245781516001600160a01b0316875295820195908201906001016115ff565b509495945050505050565b602081528151602082015260208201516040820152604082015160608201525f606083015161012080608085015261166b6101408501836115ed565b91506080850151601f198584030160a086015261168883826115ed565b92505060a085015161169e60c086018215159052565b5060c08501516001600160a01b03811660e08601525060e08501516101006116c98187018315159052565b959095015193019290925250919050565b80356001600160a01b03811681146116f0575f80fd5b919050565b5f805f60608486031215611707575f80fd5b833592506020840135915061171e604085016116da565b90509250925092565b602081525f61044860208301846115ed565b5f805f806080858703121561174c575f80fd5b84359350602085013592506040850135915060608501358015158114611770575f80fd5b939692955090935050565b634e487b7160e01b5f52604160045260245ffd5b5f80604083850312156117a0575f80fd5b8235915060208084013567ffffffffffffffff808211156117bf575f80fd5b818601915086601f8301126117d2575f80fd5b8135818111156117e4576117e461177b565b8060051b604051601f19603f830116810181811085821117156118095761180961177b565b604052918252848201925083810185019189831115611826575f80fd5b938501935b8285101561184b5761183c856116da565b8452938501939285019261182b565b8096505050505050509250929050565b5f805f6060848603121561186d575f80fd5b8335925061187d602085016116da565b9150604084013590509250925092565b634e487b7160e01b5f52603260045260245ffd5b634e487b7160e01b5f52601160045260245ffd5b5f600182016118c6576118c66118a1565b5060010190565b8181038181111561044b5761044b6118a1565b8082018082111561044b5761044b6118a1565b5f60808201868352602060808185015281875480845260a086019150885f52825f2093505f5b8181101561193e5784546001600160a01b031683526001948501949284019201611919565b505060408501969096525050506060015292915050565b848152608060208201525f61196d60808301866115ed565b604083019490945250606001529291505056fea2646970667358221220fc9f022aaaa287b8dcc8d6b33c3c12270a3c44100fbf9f97a0f5616f70c9792264736f6c63430008140033","linkReferences":{}},"methodIdentifiers":{"checkAndAdvanceTurn(uint256)":"40751bda","endTurnManagement(uint256)":"0921f45a","forceTimeout(uint256)":"3513898f","getCurrentTurnNumber(uint256)":"ef0c116d","getCurrentTurnPlayers(uint256)":"7aba7889","getPendingPlayers(uint256)":"5d06bdd2","getPlayerGuess(uint256,uint256,address)":"1eb85b9d","getTurnConfig(uint256)":"fc4dc897","getTurnData(uint256,uint256)":"160a28f6","handleCorrectGuess(uint256,address,uint256)":"e6cd5ab3","hasPlayerSubmitted(uint256,uint256,address)":"4a907fcd","initializeTurnManagement(uint256,uint256,uint256,bool)":"b922d7aa","isTurnActive(uint256)":"0645c777","resetTurnCounters(uint256)":"b99e6e48","startNewTurn(uint256,address[])":"c9b91658","submitGuess(uint256,bytes32)":"e4d33ee3"},"id":33}